:1003D80012049F12047912043412044CE5096401D2
:0F03E80070FAFB7A00790A120463E4F50980EDDC
:10049F007580FFC2A5C2A6D2A7C2A5C2A6C2A722B7
:10048E00EFF4F580C2A5C2A6D2A7C2A5C2A6C2A786
:01049E00223B
:10041600EF1FAA0670011E4A6013E4FCFDC3ED94AB
:0D04260074EC940250EA0DBD00010C80F052
:0104330022A6
:0803F7000214000002160000D0
:0B04AF00D2AAD28AD2A8D288D2AF22F3
:03000300020304F1
:10030400C0E0C0F0C083C082C0D075D000C000C0BF
:0D03140001C002C003C004C005C006C00740
:100321000515E51570020514AE14FF7C007D02125F
:0F0331000145ED4C60047FFF8002E4FF12048E53
:10034000D007D006D005D004D003D002D001D00011
:0B035000D0D0D082D083D0F0D0E032BB
:0300130002035B8A
:10035B00C0E0C0F0C083C082C0D075D000C000C068
:0D036B0001C002C003C004C005C006C007E9
:100378000517E51770020516AE16FF7C007D021200
:0F0388000145ED4C60047FFF8002E4FF12048EFC
:10039700D007D006D005D004D003D002D001D000BA
:0B03A700D0D0D082D083D0F0D0E03264
:0403FF0002180000E0
:10047900538EBF53890F758B18758DFCC28FD28E21
:05048900D2ABD2AF224E
:03001B00020006DA
:02000600C0E058
:080008000519E5197002051845
:03001000D0E0320B
:10043400E4F580E5A054DF44C0F5A053A01F758007
:08044400C043A0EF53A01F22EA
:10028900EDB40A00504B900296F82828730202B484
:100299000202B80202BC0202C00202C40202C8027F
:1002A90002CC0202D00202D40202D87EC080227E91
:1002B900F9801E7EA4801A7EB080167E9980127EF7
:1002C90092800E7E82800A7EF880067E8080027E81
:1002D900907580FF43A0E053A01FA8077401088010
:1002E90002C333D8FCF580E5A054DF44C0F5A05320
:0A02F900A01F8E8043A0E053A01F59
:0103030022D7
:10002600C2C4D2C2D2B5D2B4AFB07E00D2C4C2C2AC
:10003600D2B5D2B4EFC4F8540FC868FFEEC454F07A
:1000460048FEE5B0540FFDEF4DD2C4D2C2C2B5D2C0
:10005600B4C4F8540FC868FFEEC454F048FEE5B0C7
:10006600540FFDEF4DD2C4D2C2D2B5C2B4C4F854B7
:100076000FC868FFEEC454F048FEE5B0540FFDEF1C
:100086004DF4FFEEF4FEEF8EF012017B012100012C
:10009600011C00020117000401120008010D0010E6
:1000A600010800200103004000FE008000F9010065
:1000B60000F4020000EF040000EA080000E510006A
:1000C60000E0200000DB400000D680000000012692
:1000D600751A04804E751A058049751A068044758E
:1000E6001A07803F751A08803A751A098035751AFD
:1000F6000A8030751A0B802B751A0C8026751A0D1E
:100106008021751A0E801C751A0F8017751A1080BB
:1001160012751A11800D751A128008751A1380034C
:05012600E4F51AAF1A18
:01012B0022B1
:100403000A0A0000000000000000000001080001CB
:020413000900DE
:10044C00759850438E01438E0475D78F75D6FD4336
:07045C008E10D2ACD2AF22DA
:1004630012012C6010F5993099FDC299740129F994
:06047300E43AFA80EB22DE
:030023000203B223
:0B03B200C0E0C0D075D000C000C00744
:1003BD0030980FAF080508740A2FF8A699C29875E2
:0203CD00090124
:0903CF00D007D000D0D0D0E032FC
:030000000201FDFD
:0C01FD00787FE4F6D8FD75811B020244F7
:10012C00BB010689828A83E0225002E722BBFE02D1
:09013C00E32289828A83E4932204
:10014500C2D5EC30E709B2D5E4C39DFDE49CFCEED5
:1001550030E715B2D5E4C39FFFE49EFE1201A8C3A4
:10016500E49DFDE49CFC80031201A830D507C3E49F
:060175009FFFE49EFE2244
:10017B00D083D082F8E4937012740193700DA3A313
:10018B0093F8740193F5828883E473740293B5F04A
:0D019B00067403936860E9A3A3A3A380D8B2
:100209000203D8E493A3F8E493A34003F68001F230
:1002190008DFF48029E493A3F85407240CC8C333F6
:10022900C4540F4420C8834004F456800146F6DFC5
:10023900E4800B01020408102040809003F7E47E5B
:10024900019360BCA3FF543F30E509541FFEE493BA
:10025900A360010ECF54C025E060A840B8E493A381
:10026900FAE493A3F8E493A3C8C582C8CAC583CAAC
:10027900F0A3C8C582C8CAC583CADFE9DEE780BE64
:0104150000E6
:1001A800BC000BBE0029EF8DF084FFADF022E4CC3B
:1001B800F875F008EF2FFFEE33FEEC33FCEE9DEC04
:1001C800984005FCEE9DFE0FD5F0E9E4CEFD22ED4A
:1001D800F8F5F0EE8420D21CFEADF075F008EF2F94
:1001E800FFED33FD4007985006D5F0F222C398FD85
:0501F8000FD5F0EA2222
:00000001FF
