:0508B8000323173B3291
:10073F001209B8120973AE21AF227C007D0A120292
:10074F00F5AD07E4FBFF12054DE52275F00A84AD08
:10075F00F07B017F0112054DE52275F00AA475F0BB
:10076F000A84ADF0E4FB7F0212054DE52275F064BB
:10077F00A475F00A84ADF0E4FB7F0312054D80B63B
:1009DE007580FFC2A5C2A6D2A7C2A5C2A6C2A72273
:1009CD00EFF4F580C2A5C2A6D2A7C2A5C2A6C2A742
:0109DD0022F7
:1008FF00EF1FAA0670011E4A6013E4FCFDC3ED94BE
:0D090F0074EC940250EA0DBD00010C80F064
:01091C0022B8
:0808BD000226000002280000E1
:0B000600D2AAD28AD2A8D288D2AF22A0
:0300030002063FB3
:10063F00C0E0C0F0C083C082C0D075D000C000C081
:0D064F0001C002C003C004C005C006C00702
:10065C000527E52770020526AE26FF7C007D0212D9
:0F066C00034AED4C60047FFF8002E4FF1209CDCA
:10067B00D007D006D005D004D003D002D001D000D3
:0B068B00D0D0D082D083D0F0D0E0327D
:030013000206964C
:10069600C0E0C0F0C083C082C0D075D000C000C02A
:0D06A60001C002C003C004C005C006C007AB
:1006B3000529E52970020528AE28FF7C007D02127A
:0F06C300034AED4C60047FFF8002E4FF1209CD73
:1006D200D007D006D005D004D003D002D001D0007C
:0B06E200D0D0D082D083D0F0D0E03226
:0A09EE0048656C6C6F0A0000000001
:0408C500021E00000F
:1009B800538EBF53890F758B18758DFCC28FD28EDD
:0509C800D2ABD2AF220A
:03001B000205D407
:1005D400C0E0C0F0C083C082C0D075D000C000C0ED
:0D05E40001C002C003C004C005C006C0076E
:1005F10078147C007D007BFF7A0979EE7E007F0A0A
:10060100120255051FE51F7002051EAE1EFF7C017B
:100611007DF412034AED4C700A1207D41201048EC4
:03062100218F2204
:10062400D007D006D005D004D003D002D001D0002A
:0B063400D0D0D082D083D0F0D0E032D4
:10097300E4F580E5A054DF44C0F5A053A01F7580C3
:08098300C043A0EF53A01F22A6
:02054D00A907FC
:10054F00EDB40A00504B90055CF828287302057A29
:10055F0002057E02058202058602058A02058E02C9
:10056F00059202059602059A02059E7EC080227EA4
:10057F00F9801E7EA4801A7EB080167E9980127E2E
:10058F0092800E7E82800A7EF880067E8080027EB8
:10059F0090EB6401700353067F7580FF43A0E05317
:1005AF00A01FAF01A8077401088002C333D8FCF560
:1005BF0080E5A054DF44C0F5A053A01F8E8043A058
:0405CF00E053A01F36
:0105D3002205
:1003BB00C2C4D2C2D2B5D2B4AFB07E00D2C4C2C214
:1003CB00D2B5D2B4EFC4F8540FC868FFEEC454F0E2
:1003DB0048FEE5B0540FFDEF4DD2C4D2C2C2B5D228
:1003EB00B4C4F8540FC868FFEEC454F048FEE5B02F
:1003FB00540FFDEF4DD2C4D2C2D2B5C2B4C4F8541F
:10040B000FC868FFEEC454F048FEE5B0540FFDEF83
:10041B004DF4FFEEF4FEEF8EF012038E04B60001E6
:10042B0004B1000204AC000404A7000804A20010ED
:10043B00049D00200498004004930080048E01006A
:10044B000489020004840400047F0800047A10006D
:10045B000475200004704000046B8000000004BB96
:10046B00752A04804E752A058049752A06804475C5
:10047B002A07803F752A08803A752A098035752A24
:10048B000A8030752A0B802B752A0C8026752A0D55
:10049B008021752A0E801C752A0F8017752A1080F3
:1004AB0012752A11800D752A128008752A13800384
:0504BB00E4F52AAF2A60
:0104C0002219
:1008C9000A0A000000000000000000000108000101
:0208D900090014
:10098B00759850438E01438E0475D78F75D6FD43F2
:07099B008E10D2ACD2AF2296
:1009A20012027B6010F5993099FDC299740129F900
:0609B200E43AFA80EB229A
:030023000208923E
:10089200C0E0C0D075D000C000C00730980FAF08CC
:1008A2000508740A2FF8A699C298750901D007D0D5
:0608B20000D0D0D0E032BE
:10093B00E4FEEEC3940874809480500FC297EF13BB
:0B094B0092A3EFC313FFD2970E80E7CA
:01095600227E
:0809570075F00A84E5F02EFDA5
:10095F00C29300C29700D2930012093BAF05120950
:04096F003BC29322D2
:10080D00E4FDC29300C29700D2930012093BE4FFAE
:10081D00EFC39408748094805011C297EDC313FDFB
:10082D0030A303430580D2970F80E5C29300C29792
:06083D0000C2A300AF059C
:010843002292
:1006ED00E4FD7F8E12095F12027BFF75F00A84C450
:1006FD0054F0FEEF7F84120957900001120294FF0F
:10070D0075F00A84C454F0FEEF7F821209579000F1
:10071D0002120294FF75F00A84C454F0FEEF75F0D6
:10072D000A84E5F02EFD7F8012095F7D807F8E02A9
:02073D00095F52
:10078F007F8512080DEFC4540F75F00AA4FEEF54C5
:10079F000F2E1202C17F8312080DEFC4540F75F094
:1007AF000AA4FEEF540F2E9000011202D37F811284
:1007BF00080DEFC4540F75F00AA4FEEF540F2E90DE
:0507CF0000020202D34C
:04091D007F057E00D4
:10092100EF1FAA0670011E4A600FE4FDEDC3940C8F
:090931007480948050EA0D80F3FB
:01093A00229A
:02084400A90702
:10084600E4FBEBC39408748094805012C294E913BD
:10085600929412091DD294E9C313F90B80E47F0523
:050866007E00020921E3
:1008DC00E4FBEBC39408748094805014C294ECC372
:1008EC0013FCD29430940343048012091D0B80E254
:0208FC00AF0447
:0108FE0022D7
:10086B00C200D2947F0C7E00120921C2947F507E6D
:10087B0000120921D2947F0A7E00120921A29492C0
:06088B000012091DA2008D
:010891002244
:1007D40012086B7FCC1208447F4412084412086B41
:1007E4007FCC1208447FBE1208441208DCA9071209
:1007F40008DCEFFE7C00E429FDEC3EFC1200CBE4B7
:09080400FBFA7980784102002919
:1000260002017AEC5D046005E85904700302017070
:1000360012013B580460F6EC4860F2EC7004FDFED9
:10004600FF22C860DB2481C85009C39860025006AD
:100056000201779850CAF582E9294B4A7005AB82AE
:1000660002016675F0007C1A7880C3EF9BEE9AED6C
:1000760099400DC3EF9BFFEE9AFEED99FDE842F025
:10008600DC23ACF0D0E0FFD0E0FED0E0FDAB822078
:10009600E7101BEB60BAEC2CFCEF33FFEE33FEED02
:1000A60033FD020152E803F830E705C0F075F000B1
:1000B600EF2FFFEE33FEED33FD40B830E7C280AAE6
:1000C60075F020800E75F010800575F0087D007EB5
:1000D600007F003392D530D503120380EC334010F5
:1000E600EF33FFEE33FEED33FDEC33FCD5F0ED22BE
:0E00F600E5F0247EA2D513CC92E7CDCEFF22FA
:10010400EDD2E7CD33EC3392D524814006E4FFFEF3
:10011400FDFC22FCE4CFCECDCC24E0501174FF8052
:10012400EDC3CC13CCCD13CDCE13CECF13CF0470EF
:07013400F030D5DE0203806C
:10013B00E9D2E7C933E833F892D5EDD2E7CD33EC0A
:07014B0033FC5002B2D52283
:10015200EC30E7100FBF000C0EBE00080DBD00040E
:100162000BEB6014A2D5EB13FCED92E7FD2274FFBA
:10017200FCFDFEFF22E480F8A2D574FF13FC7D8013
:03018200E480EF27
:030000000204C136
:0C04C100787FE4F6D8FD75812A0205085A
:10018500E709F608DFFA8046E709F208DFFA803E5C
:1001950088828C83E709F0A3DFFA8032E309F60849
:1001A500DFFA8078E309F208DFFA807088828C83B1
:1001B500E309F0A3DFFA806489828A83E0A3F60865
:1001C500DFFA805889828A83E0A3F208DFFA804C3F
:1001D50080D280FA80C680D4806980F28033801016
:1001E50080A680EA809A80A880DA80E280CA80337F
:1001F50089828A83ECFAE493A3C8C582C8CCC583F7
:10020500CCF0A3C8C582C8CCC583CCDFE9DEE780C6
:100215000D89828A83E493A3F608DFF9ECFAA9F045
:10022500EDFB2289828A83ECFAE0A3C8C582C8CC9B
:10023500C583CCF0A3C8C582C8CCC583CCDFEADEB4
:10024500E880DB89828A83E493A3F208DFF980CC16
:1002550088F0EF60010E4E60C388F0ED2402B4040F
:100265000050B9F582EB2402B4040050AF232345B6
:0602750082239001D57305
:10027B00BB010689828A83E0225002E722BBFE0281
:09028B00E32289828A83E49322B4
:10029400BB010CE58229F582E5833AF583E022501F
:1002A40006E92582F8E622BBFE06E92582F8E22269
:0D02B400E58229F582E5833AF583E4932283
:1002C100BB010689828A83F0225002F722BBFE011C
:0202D100F32216
:1002D300F8BB010DE58229F582E5833AF583E8F061
:1002E300225006E92582C8F622BBFE05E92582C80D
:0202F300F222F5
:1002F500BC000BBE0029EF8DF084FFADF022E4CCED
:10030500F875F008EF2FFFEE33FEEC33FCEE9DECB5
:10031500984005FCEE9DFE0FD5F0E9E4CEFD22EDFB
:10032500F8F5F0EE8420D21CFEADF075F008EF2F45
:10033500FFED33FD4007985006D5F0F222C398FD36
:050345000FD5F0EA22D3
:10034A00C2D5EC30E709B2D5E4C39DFDE49CFCEECE
:10035A0030E715B2D5E4C39FFFE49EFE1202F5C34F
:10036A00E49DFDE49CFC80031202F530D507C3E44A
:06037A009FFFE49EFE223D
:0E038000C3E49FFFE49EFEE49DFDE49CFC228E
:10038E00D083D082F8E4937012740193700DA3A3FE
:10039E0093F8740193F5828883E473740293B5F035
:0D03AE00067403936860E9A3A3A3A380D89D
:1004CD0002073FE493A3F8E493A34003F68001F2FF
:1004DD0008DFF48029E493A3F85407240CC8C33330
:1004ED00C4540F4420C8834004F456800146F6DFFF
:1004FD00E4800B01020408102040809008B8E47ECF
:10050D00019360BCA3FF543F30E509541FFEE493F3
:10051D00A360010ECF54C025E060A840B8E493A3BA
:10052D00FAE493A3F8E493A3C8C582C8CAC583CAE5
:10053D00F0A3C8C582C8CAC583CADFE9DEE780BE9D
:0108DB00001C
:00000001FF
