:0D07A900031A59624C0317000000011D7077
:10046B001209E41209887B007A00791A751603AD1C
:10047B001D1206F97FF47E011209147B007A0079B4
:10048B0017751603AD1D12060EE53164017002F5EA
:10049B0031E51775F00A84FDE4FBFF1203E0E51765
:1004AB0075F00A84ADF0E4FB7F011203E0E51875EB
:1004BB00F00A84FDE4FB7F021203E0E51875F00AF5
:1004CB0084ADF0E4FB7F031203E0E51975F00A84B9
:1004DB00FDE4FB7F041203E0E51975F00A84ADF02F
:0904EB00E4FB7F051203E080A090
:100A1B007580FFC2A5C2A6D2A7C2A5C2A6C2A72235
:1009F900EFF4F580C2A5C2A6D2A7C2A5C2A6C2A716
:010A090022CA
:10091400EF1FAA0670011E4A6013E4FCFDC3ED94A8
:0D09240074EC940250EA0DBD00010C80F04F
:0109310022A3
:0807B6000232000002340000D1
:0B0A4300D2AAD28AD2A8D288D2AF2259
:0300030002056093
:10056000C0E0C0F0C083C082C0D075D000C000C061
:0D05700001C002C003C004C005C006C007E2
:10057D000533E53370020532AE32FF7C007D021289
:0F058D000196ED4C60047FFF8002E4FF1209F934
:10059C00D007D006D005D004D003D002D001D000B3
:0B05AC00D0D0D082D083D0F0D0E0325D
:030013000205B72C
:1005B700C0E0C0F0C083C082C0D075D000C000C00A
:0D05C70001C002C003C004C005C006C0078B
:1005D4000535E53570020534AE34FF7C007D02122A
:0F05E4000196ED4C60047FFF8002E4FF1209F9DD
:1005F300D007D006D005D004D003D002D001D0005C
:0B060300D0D0D082D083D0F0D0E03205
:0A0A4E0048656C6C6F0A00000000A0
:0B07BE00013100022D0000022F00009E
:1009E400538EBF53890F758B18758DFCC28FD28EB1
:0509F400D2ABD2AF22DE
:03001B000204F4E8
:1004F400C0E0C0F0C083C082C0D075D000C000C0CE
:0D05040001C002C003C004C005C006C0074E
:1005110078087C007D007BFF7A0A794E7E007F0A95
:100521001200F6052EE52E7002052DAE2DFF7C0181
:100531007DF4120196ED4C700B0530E5307002052B
:040541002F753101E0
:10054500D007D006D005D004D003D002D001D0000A
:0B055500D0D0D082D083D0F0D0E032B4
:10098800E4F580E5A054DF44C0F5A053A01F7580AE
:08099800C043A0EF53A01F2291
:0203E000A9076B
:1003E200EDB40A00504D9003EFF828287302040D73
:1003F20002041102041502041902041D020421025E
:10040200042502042902042D0204317EC080267EC6
:10041200F980227EA4801E7EB0801A7E9980167E8C
:100422009280127E82800E7EF8800A7E8080067E16
:100432009080027EC0EB6401700353067F7580FFDB
:1004420043A0E053A01FAF01A8077401088002C3B4
:1004520033D8FCF580E5A054DF44C0F5A053A01FBB
:080462008E8043A0E053A01FAF
:01046A00226F
:10024E00C2C4D2C2D2B5D2B4AFB07E00D2C4C2C282
:10025E00D2B5D2B4EFC4F8540FC868FFEEC454F050
:10026E0048FEE5B0540FFDEF4DD2C4D2C2C2B5D296
:10027E00B4C4F8540FC868FFEEC454F048FEE5B09D
:10028E00540FFDEF4DD2C4D2C2D2B5C2B4C4F8548D
:10029E000FC868FFEEC454F048FEE5B0540FFDEFF2
:1002AE004DF4FFEEF4FEEF8EF01201CC0349000187
:1002BE0003440002033F0004033A00080335001014
:1002CE0003300020032B0040032600800321010091
:1002DE00031C02000317040003120800030D100094
:1002EE00030820000303400002FE80000000034EBE
:1002FE00751E04804E751E058049751E0680447558
:10030E001E07803F751E08803A751E098035751EC2
:10031E000A8030751E0B802B751E0C8026751E0DE7
:10032E008021751E0E801C751E0F8017751E108085
:10033E0012751E11800D751E128008751E13800316
:05034E00E4F51EAF1EE6
:010353002287
:1007C9000A230000000000000000000001210001D0
:0207D9002200FC
:1009A000759850438E01438E0475D78F75D6FD43DD
:0709B0008E10D2ACD2AF2281
:1009CE0012011C6010F5993099FDC299740129F934
:0609DE00E43AFA80EB226E
:030023000208854B
:10088500C0E0C0D075D000C000C00730980FAF21C0
:10089500052174232FF8A699C298752201D007D097
:0608A50000D0D0D0E032CB
:10095000E4FEEEC3940874809480500FC297EF13A6
:0B09600092A3EFC313FFD2970E80E7B5
:01096B002269
:08096C0075F00A84E5F02EFD90
:10097400C29300C29700D29300120950AF05120926
:0409840050C29322A8
:10073D00E4FDC29300C29700D29300120950E4FF6A
:10074D00EFC39408748094805011C297EDC313FDCC
:10075D0030A303430580D2970F80E5C29300C29763
:06076D0000C2A300AF056D
:010773002263
:10066200E4FD7F8E12097412011CFF75F00A84C426
:1006720054F0FEEF7F8412096C900001120135FFE5
:1006820075F00A84C454F0FEEF7F8212096C900068
:1006920002120135FF75F00A84C454F0FEEF75F0C2
:1006A2000A84E5F02EFD7F801209747D807F8E0220
:0206B2000974C9
:1006B4007F8512073DEFC4540F75F00AA4FEEF5472
:1006C4000F2E1201627F8312073DEFC4540F75F0A1
:1006D4000AA4FEEF540F2E9000011201747F8112C0
:1006E400073DEFC4540F75F00AA4FEEF540F2E908B
:0506F400000202017488
:040932007F057E00BF
:10093600EF1FAA0670011E4A600FE4FDEDC3940C7A
:090946007480948050EA0D80F3E6
:01094F002285
:02083700A9070F
:10083900E4FBEBC39408748094805012C294E913CA
:100849009294120932D294E9C313F90B80E47F051B
:050859007E00020936DB
:1008D100E4FBEBC39408748094805014C294ECC37D
:1008E10013FCD2943094034304801209320B80E24A
:0208F100AF0452
:0108F30022E2
:10085E00C200D2947F0C7E00120936C2947F507E65
:10086E0000120936D2947F0A7E00120936A29492A3
:06087E0000120932A20085
:010884002251
:10080A0012085E7FCC1208377F4412083712085E3E
:10081A007FCC1208377FBE1208371208D1A90712F7
:0C082A0008D1EFFE7C00E429FFEC3EFE4C
:01083600229F
:04000600D2A07F0500
:08000A0000AE071FEE70F922A1
:0C0A2B00D2A1120006C2A17F0502000A41
:0C0A3700C2A1120006D2A17F0502000A35
:1009B700C2A0A20192A17F0512000A120006C2A0DE
:0709C700D2A17F0502000A26
:100A0A00120006A2A19201C2A07F0512000AA20149
:010A1A0022B9
:02077400AD07CF
:10077600E4FCECC39408748094805024C2A07F05E6
:1007860012000AED30E704D2A18002C2A17F051251
:10079600000AD2A0ED25E0FD7F0512000A0C80D2EA
:0207A600C2A0EF
:0107A800222E
:1008AB00E4FCECC39408748094805017120006ED9E
:1008BB0025E0FD30A103430501C2A07F0512000A0C
:0508CB000C80DFAF0509
:0108D0002205
:1007DC00120A2B7F90120774120A0A7F43120774B5
:1007EC00120A0A120A2B7F91120774120A0A1208B3
:0D07FC00AB8F1FD2011209B7120A37AF1FD1
:0108090022CC
:1008F4008F36120A2B7F90120774120A0A7F431252
:100904000774120A0AAF36120774120A0A020A3767
:10060E008B128A1389148D15120A2B7FA012077470
:10061E00120A0AAF15120774120A0A120A2B7FA1C8
:10062E00120774120A0AAF161516EF60241208ABE1
:10063E00AB120514E514AA137002051314F9EF1288
:10064E000162E5166004C2018002D2011209B78070
:04065E00D5020A3780
:1006F9008B128A1389148D15120A2B7FA012077485
:10070900120A0AAF15120774120A0AAF161516EF64
:10071900601FAB120514E514AA137002051314F92E
:1007290012011CFF120774120A0A7FC812000A80FC
:04073900DA020A379F
:03000000020354A4
:0C035400787FE4F6D8FD75813602039B2B
:10002600E709F608DFFA8046E709F208DFFA803EBC
:1000360088828C83E709F0A3DFFA8032E309F608A9
:10004600DFFA8078E309F208DFFA807088828C8311
:10005600E309F0A3DFFA806489828A83E0A3F608C5
:10006600DFFA805889828A83E0A3F208DFFA804C9F
:1000760080D280FA80C680D4806980F28033801076
:1000860080A680EA809A80A880DA80E280CA8033DF
:1000960089828A83ECFAE493A3C8C582C8CCC58357
:1000A600CCF0A3C8C582C8CCC583CCDFE9DEE78027
:1000B6000D89828A83E493A3F608DFF9ECFAA9F0A6
:1000C600EDFB2289828A83ECFAE0A3C8C582C8CCFC
:1000D600C583CCF0A3C8C582C8CCC583CCDFEADE15
:1000E600E880DB89828A83E493A3F208DFF980CC77
:1000F60088F0EF60010E4E60C388F0ED2402B40470
:100106000050B9F582EB2402B4040050AF23234516
:06011600822390007673C5
:10011C00BB010689828A83E0225002E722BBFE02E1
:09012C00E32289828A83E4932214
:10013500BB010CE58229F582E5833AF583E022507F
:1001450006E92582F8E622BBFE06E92582F8E222C9
:0D015500E58229F582E5833AF583E49322E3
:10016200BB010689828A83F0225002F722BBFE017C
:02017200F32276
:10017400F8BB010DE58229F582E5833AF583E8F0C1
:10018400225006E92582C8F622BBFE05E92582C86D
:02019400F22255
:10019600C2D5EC30E709B2D5E4C39DFDE49CFCEE84
:1001A60030E715B2D5E4C39FFFE49EFE1201F9C302
:1001B600E49DFDE49CFC80031201F930D507C3E4FD
:0601C6009FFFE49EFE22F3
:1001CC00D083D082F8E4937012740193700DA3A3C2
:1001DC0093F8740193F5828883E473740293B5F0F9
:0D01EC00067403936860E9A3A3A3A380D861
:1003600002046BE493A3F8E493A34003F68001F244
:1003700008DFF48029E493A3F85407240CC8C3339E
:10038000C4540F4420C8834004F456800146F6DF6D
:10039000E4800B01020408102040809007A9E47E4D
:1003A000019360BCA3FF543F30E509541FFEE49362
:1003B000A360010ECF54C025E060A840B8E493A329
:1003C000FAE493A3F8E493A3C8C582C8CAC583CA54
:1003D000F0A3C8C582C8CAC583CADFE9DEE780BE0C
:0107DB00001D
:1001F900BC000BBE0029EF8DF084FFADF022E4CCEA
:10020900F875F008EF2FFFEE33FEEC33FCEE9DECB2
:10021900984005FCEE9DFE0FD5F0E9E4CEFD22EDF8
:10022900F8F5F0EE8420D21CFEADF075F008EF2F42
:10023900FFED33FD4007985006D5F0F222C398FD33
:050249000FD5F0EA22D0
:00000001FF
