:04073200021E0000A3
:100375001208B71208FE12085BAE1EAF1F7C277D60
:10038500101200A0AD07E4FBFF1202EAAE1EAF1F7C
:100395007C037DE81200A07C007D0A1200A0E4FB2E
:1003A5007F011202EAAE1EAF1F7C007D641200A021
:1003B5007C007D0A1200A0E4FB7F021202EAAE1E59
:1003C500AF1F7C007D0A1200A07C007D0A1200A0F0
:1003D500E4FB7F031202EAAE1EAF1F7C007D0A120A
:0B03E50000A0E4FB7F041202EA808EFF
:1008EE007580FFC2A5C2A6D2A7C2A5C2A6C2A72264
:1008CC00EFF4F580C2A5C2A6D2A7C2A5C2A6C2A744
:0108DC0022F9
:1007E700EF1FAA0670011E4A6013E4FCFDC3ED94D7
:0D07F70074EC940250EA0DBD00010C80F07E
:0108040022D1
:08073600022100000223000073
:0B092600D2AAD28AD2A8D288D2AF2277
:030003000203F005
:1003F000C0E0C0F0C083C082C0D075D000C000C0D3
:0D04000001C002C003C004C005C006C00753
:10040D000522E52270020521AE21FF7C007D02123E
:0F041D0000F5ED4C60047FFF8002E4FF1208CC75
:10042C00D007D006D005D004D003D002D001D00024
:0B043C00D0D0D082D083D0F0D0E032CE
:030013000204479D
:10044700C0E0C0F0C083C082C0D075D000C000C07B
:0D04570001C002C003C004C005C006C007FC
:100464000524E52470020523AE23FF7C007D0212DF
:0F04740000F5ED4C60047FFF8002E4FF1208CC1E
:10048300D007D006D005D004D003D002D001D000CD
:0B049300D0D0D082D083D0F0D0E03277
:07073E000127000225000065
:1008B700538EBF53890F758B18758DFCC28FD28EDF
:0508C700D2ABD2AF220C
:1008FE00538E7F438905E4F58AF58CC28DD28C2206
:03001B0002054497
:10054400C0E0C0F0C0D075D000C000C004C005C079
:0305540006C007D7
:100557000526E52670020525AE25FF7C037DE812FA
:1005670000F5ED4C7016AF8CEFFEAD8A7C00E42DE4
:0C057700F51FEC3EF51E758C00758A0027
:10058300D007D006D005D004D000D0D0D0F0D0E032
:010593003235
:10085B00E4F580E5A054DF44C0F5A053A01F7580DC
:08086B00C043A0EF53A01F22BF
:0202EA00A90762
:1002EC00EDB40A00504D9002F9F828287302031758
:1002FC0002031B02031F02032302032702032B0228
:10030C00032F02033302033702033B7EC080267E99
:10031C00F980227EA4801E7EB0801A7E9980167E83
:10032C009280127E82800E7EF8800A7E8080067E0D
:10033C009080027EC0EB6401700353067F7580FFD2
:10034C0043A0E053A01FAF01A8077401088002C3AB
:10035C0033D8FCF580E5A054DF44C0F5A053A01FB2
:08036C008E8043A0E053A01FA6
:010374002266
:10015800C2C4D2C2D2B5D2B4AFB07E00D2C4C2C279
:10016800D2B5D2B4EFC4F8540FC868FFEEC454F047
:1001780048FEE5B0540FFDEF4DD2C4D2C2C2B5D28D
:10018800B4C4F8540FC868FFEEC454F048FEE5B094
:10019800540FFDEF4DD2C4D2C2D2B5C2B4C4F85484
:1001A8000FC868FFEEC454F048FEE5B0540FFDEFE9
:1001B8004DF4FFEEF4FEEF8EF012012B0253000116
:1001C800024E00020249000402440008023F0010E7
:1001D800023A00200235004002300080022B010064
:1001E8000226020002210400021C08000217100067
:1001F80002122000020D4000020880000000025890
:10020800752804804E752805804975280680447530
:100218002807803F752808803A7528098035752891
:100228000A803075280B802B75280C802675280DC0
:10023800802175280E801C75280F8017752810805E
:1002480012752811800D75281280087528138003EF
:05025800E4F528AF28C9
:01025D00227E
:100745000A0A000000000000000000000108000186
:02075500090099
:10087300759850438E01438E0475D78F75D6FD430B
:070883008E10D2ACD2AF22AF
:1008A1001200266010F5993099FDC299740129F959
:0608B100E43AFA80EB229C
:0300230002075879
:10075800C0E0C0D075D000C000C00730980FAF0807
:100768000508740A2FF8A699C298750901D007D010
:0607780000D0D0D0E032F9
:10082300E4FEEEC3940874809480500FC297EF13D4
:0B08330092A3EFC313FFD2970E80E7E3
:01083E002297
:08083F0075F00A84E5F02EFDBE
:10084700C29300C29700D29300120823AF05120883
:0408570023C2932203
:10061D00E4FDC29300C29700D29300120823E4FFB9
:10062D00EFC39408748094805011C297EDC313FDED
:10063D0030A303430580D2970F80E5C29300C29784
:06064D0000C2A300AF058E
:010653002284
:1004F200E4FD7F8E120847120026FF75F00A84C4BD
:1005020054F0FEEF7F8412083F90000112003FFF7B
:1005120075F00A84C454F0FEEF7F8212083F900007
:100522000212003FFF75F00A84C454F0FEEF75F02A
:100532000A84E5F02EFD7F801208477D807F8E02BF
:02054200084768
:100594007F8512061DEFC4540F75F00AA4FEEF54B4
:1005A4000F2E12006C7F8312061DEFC4540F75F0DA
:1005B4000AA4FEEF540F2E90000112007E7F8112D8
:1005C400061DEFC4540F75F00AA4FEEF540F2E90CD
:0505D400000202007EA0
:040805007F057E00ED
:10080900EF1FAA0670011E4A600FE4FDEDC3940CA8
:090819007480948050EA0D80F314
:0108220022B3
:0206E400A90764
:1006E600E4FBEBC39408748094805012C294E9131F
:1006F6009294120805D294E9C313F90B80E47F059E
:050706007E000208095D
:1007A400E4FBEBC39408748094805014C294ECC3AB
:1007B40013FCD2943094034304801208050B80E2A6
:0207C400AF0480
:0107C6002210
:10070B00C200D2947F0C7E00120809C2947F507EE7
:10071B0000120809D2947F0A7E00120809A2949253
:06072B0000120805A20007
:0107310022A5
:1006B70012070B7FCC1206E47F441206E412070BE5
:1006C7007FCC1206E47FBE1206E41207A4A9071224
:0C06D70007A4EFFE7C00E429FFEC3EFECF
:0106E30022F4
:04000600D2A07F0500
:08000A0000AE071FEE70F922A1
:0C090E00D2A1120006C2A17F0502000A5F
:0C091A00C2A1120006D2A17F0502000A53
:10088A00C2A0A20192A17F0512000A120006C2A00C
:07089A00D2A17F0502000A54
:1008DD00120006A2A19202C2A07F0512000AA20276
:0108ED0022E8
:02065400AD07F0
:10065600E4FCECC39408748094805024C2A07F0507
:1006660012000AED30E704D2A18002C2A17F051272
:10067600000AD2A0ED25E0FD7F0512000A0C80D20B
:02068600C2A010
:01068800224F
:10077E00E4FCECC39408748094805017120006EDCC
:10078E0025E0FD30A103430501C2A07F0512000A3A
:05079E000C80DFAF0537
:0107A3002233
:1006890012090E7F901206541208DD7F4312065498
:100699001208DD12090E7F911206541208DD1207A5
:0D06A9007E8F29D20112088A12091AAF298A
:0106B6002221
:1007C7008F2A12090E7F901206541208DD7F4312FA
:1007D70006541208DDAF2A1206541208DD02091A60
:10049E008B148A1589168D1712090E7FA012065419
:1004AE001208DDAF171206541208DD12090E7FA1D5
:1004BE001206541208DDAF181518EF602412077ECD
:1004CE00AB140516E516AA157002051514F9EF12F0
:1004DE00006CE5186004C2018002D20112088A8005
:0404EE00D502091A10
:1005D9008B198A1A891B8D1C12090E7FA0120654C9
:1005E9001208DDAF1C1206541208DDAF1D151DEFF0
:1005F900601FAB19051BE51BAA1A7002051A14F92D
:10060900120026FF1206541208DD7FC812000A8064
:04061900DA02091ADE
:0300000002025E9B
:0C025E00787FE4F6D8FD75812A0202A525
:10002600BB010689828A83E0225002E722BBFE02D8
:09003600E32289828A83E493220B
:10003F00BB010CE58229F582E5833AF583E0225076
:10004F0006E92582F8E622BBFE06E92582F8E222C0
:0D005F00E58229F582E5833AF583E49322DA
:10006C00BB010689828A83F0225002F722BBFE0173
:02007C00F3226D
:10007E00F8BB010DE58229F582E5833AF583E8F0B8
:10008E00225006E92582C8F622BBFE05E92582C864
:02009E00F2224C
:1000A000BC000BBE0029EF8DF084FFADF022E4CC44
:1000B000F875F008EF2FFFEE33FEEC33FCEE9DEC0D
:1000C000984005FCEE9DFE0FD5F0E9E4CEFD22ED53
:1000D000F8F5F0EE8420D21CFEADF075F008EF2F9D
:1000E000FFED33FD4007985006D5F0F222C398FD8E
:0500F0000FD5F0EA222B
:1000F500C2D5EC30E709B2D5E4C39DFDE49CFCEE26
:1001050030E715B2D5E4C39FFFE49EFE1200A0C3FD
:10011500E49DFDE49CFC80031200A030D507C3E4F8
:060125009FFFE49EFE2294
:10012B00D083D082F8E4937012740193700DA3A363
:10013B0093F8740193F5828883E473740293B5F09A
:0D014B00067403936860E9A3A3A3A380D802
:10026A00020375E493A3F8E493A34003F68001F232
:10027A0008DFF48029E493A3F85407240CC8C33395
:10028A00C4540F4420C8834004F456800146F6DF64
:10029A00E4800B0102040810204080900732E47EBB
:1002AA00019360BCA3FF543F30E509541FFEE49359
:1002BA00A360010ECF54C025E060A840B8E493A320
:1002CA00FAE493A3F8E493A3C8C582C8CAC583CA4B
:1002DA00F0A3C8C582C8CAC583CADFE9DEE780BE03
:0107570000A1
:00000001FF
