:10066700120ADC120B02120A80E52760FC120763EC
:10067700AB07AA067C007D641202658F147C007D9F
:1006870064AF03AE021202657E007F0ACFCDCFCEE4
:10069700CCCE1202658F157C007D64AF03AE0212CB
:1006A70002657E007F0ACFCDCFCECCCE1202658DFC
:0606B70016E4F52780B3F4
:100B24007580FFC2A5C2A6D2A7C2A5C2A6C2A7222B
:100AF100EFF4F580C2A5C2A6D2A7C2A5C2A6C2A71D
:010B010022D1
:100A0C00EF1FAA0670011E4A6013E4FCFDC3ED94AF
:0D0A1C0074EC940250EA0DBD00010C80F056
:010A290022AA
:08090500021C0000021E0000AC
:0B0B4C00D2AAD28AD2A8D288D2AF224F
:030003000205B93A
:1005B900C0E0C0F0C083C082C0D075D000C000C008
:0D05C90001C002C003C004C005C006C00789
:1005D600051DE51D7002051CAE1CFF7C007D021288
:0F05E60002BAED4C60047FFF8002E4FF120AF1BD
:1005F500D007D006D005D004D003D002D001D0005A
:0B060500D0D0D082D083D0F0D0E03203
:03001300020610D2
:10061000C0E0C0F0C083C082C0D075D000C000C0B0
:0D06200001C002C003C004C005C006C00731
:10062D00051FE51F7002051EAE1EFF7C007D021228
:0F063D0002BAED4C60047FFF8002E4FF120AF165
:10064C00D007D006D005D004D003D002D001D00002
:0B065C00D0D0D082D083D0F0D0E032AC
:0F090D0001270002210000022300000225000044
:100ADC00538EBF53890F758B18758DFCC28FD28EB8
:050AEC00D2ABD2AF22E5
:100B0200538E7F5389F0758AF4758CFFC28DC28C27
:010B120022C0
:03001B0002054893
:10054800C0E0C0F0C083C082C0D075D000C000C079
:0D05580001C002C003C004C005C006C007FA
:100565000522E522700205210526E52670020525EE
:10057500640845257004F525F526AE21AF227C01DA
:100585007DF41202BAED4C7003752701AF26741481
:090595002FF8E6FDE4FB1204BDA1
:10059E00D007D006D005D004D003D002D001D000B1
:0B05AE00D0D0D082D083D0F0D0E0325B
:100A8000E4F580E5A054DF44C0F5A053A01F7580B5
:080A9000C043A0EF53A01F2298
:0204BD00A9078D
:1004BF00EDB40A00504D9004CCF82828730204EADA
:1004CF000204EE0204F20204F60204FA0204FE022F
:1004DF00050202050602050A02050E7EC080267E71
:1004EF00F980227EA4801E7EB0801A7E9980167EAF
:1004FF009280127E82800E7EF8800A7E8080067E39
:10050F009080027EC0EB6401700353067F7580FFFD
:10051F0043A0E053A01FAF01A8077401088002C3D6
:10052F0033D8FCF580E5A054DF44C0F5A053A01FDD
:08053F008E8043A0E053A01FD1
:010547002291
:10032B00C2C4D2C2D2B5D2B4AFB07E00D2C4C2C2A4
:10033B00D2B5D2B4EFC4F8540FC868FFEEC454F072
:10034B0048FEE5B0540FFDEF4DD2C4D2C2C2B5D2B8
:10035B00B4C4F8540FC868FFEEC454F048FEE5B0BF
:10036B00540FFDEF4DD2C4D2C2D2B5C2B4C4F854AF
:10037B000FC868FFEEC454F048FEE5B0540FFDEF14
:10038B004DF4FFEEF4FEEF8EF01202FE0426000198
:10039B0004210002041C00040417000804120010BE
:1003AB00040D0020040800400403008003FE01003C
:1003BB0003F9020003F4040003EF080003EA100042
:1003CB0003E5200003E0400003DB80000000042B6A
:1003DB00753204804E75320580497532068044753E
:1003EB003207803F753208803A7532098035753295
:1003FB000A803075320B802B75320C802675320DCE
:10040B00802175320E801C75320F8017753210806B
:10041B0012753211800D75321280087532138003FC
:05042B00E4F532AF32E0
:0104300022A9
:10091C000A0A0000000000000000000001080001AD
:02092C000900C0
:100A9800759850438E01438E0475D78F75D6FD43E4
:070AA8008E10D2ACD2AF2288
:100AC6001201EB6010F5993099FDC299740129F96C
:060AD600E43AFA80EB2275
:0300230002097D52
:10097D00C0E0C0D075D000C000C00730980FAF08E0
:10098D000508740A2FF8A699C298750901D007D0E9
:06099D0000D0D0D0E032D2
:100A4800E4FEEEC3940874809480500FC297EF13AD
:0B0A580092A3EFC313FFD2970E80E7BC
:010A63002270
:080A640075F00A84E5F02EFD97
:100A6C00C29300C29700D29300120A48AF05120A33
:040A7C0048C29322B7
:10083E00E4FDC29300C29700D29300120A48E4FF6F
:10084E00EFC39408748094805011C297EDC313FDCA
:10085E0030A303430580D2970F80E5C29300C29761
:06086E0000C2A300AF056B
:010874002261
:10071100E4FD7F8E120A6C1201EBFF75F00A84C4AE
:1007210054F0FEEF7F84120A64900001120204FF6C
:1007310075F00A84C454F0FEEF7F82120A649000BF
:1007410002120204FF75F00A84C454F0FEEF75F042
:100751000A84E5F02EFD7F80120A6C7D807F8E0277
:020761000A6C20
:1007B5007F8512083EEFC4540F75F00AA4FEEF546E
:1007C5000F2E1202317F8312083EEFC4540F75F0CD
:1007D5000AA4FEEF540F2E9000011202437F8112EE
:1007E500083EEFC4540F75F00AA4FEEF540F2E9087
:0507F5000002020243B6
:040A2A007F057E00C6
:100A2E00EF1FAA0670011E4A600FE4FDEDC3940C81
:090A3E007480948050EA0D80F3ED
:010A4700228C
:02092F00A90716
:10093100E4FBEBC39408748094805012C294E913D1
:100941009294120A2AD294E9C313F90B80E47F0529
:050951007E00020A2EE9
:1009C900E4FBEBC39408748094805014C294ECC384
:1009D90013FCD294309403430480120A2A0B80E258
:0209E900AF0459
:0109EB0022E9
:10095600C200D2947F0C7E00120A2EC2947F507E73
:1009660000120A2ED2947F0A7E00120A2EA29492B8
:0609760000120A2AA20093
:01097C002258
:1008D8001209567FCC12092F7F4412092F1209568C
:1008E8007FCC12092F7FBE12092F1209C9A907123E
:0C08F80009C9EFFE7C00E429FFEC3EFE85
:0109040022D0
:04000600D2A07F0500
:08000A0000AE071FEE70F922A1
:0C0B3400D2A1120006C2A17F0502000A37
:0C0B4000C2A1120006D2A17F0502000A2B
:100AAF00C2A0A20192A17F0512000A120006C2A0E5
:070ABF00D2A17F0502000A2D
:100B1300120006A2A19202C2A07F0512000AA2023D
:010B230022AF
:02087500AD07CD
:10087700E4FCECC39408748094805024C2A07F05E4
:1008870012000AED30E704D2A18002C2A17F05124F
:10089700000AD2A0ED25E0FD7F0512000A0C80D2E8
:0208A700C2A0ED
:0108A900222C
:1009A300E4FCECC39408748094805017120006EDA5
:1009B30025E0FD30A103430501C2A07F0512000A13
:0509C3000C80DFAF0510
:0109C800220C
:1008AA00120B347F90120875120B137F43120875CE
:1008BA00120B13120B347F91120875120B131209C3
:0D08CA00A38F33D201120AAF120B40AF33DF
:0108D70022FE
:1009EC008F34120B347F90120875120B137F431245
:1009FC000875120B13AF34120875120B13020B404F
:1006BD008B288A29892A8D2B120B347FA01208755D
:1006CD00120B13AF2B120875120B13120B347FA1E3
:1006DD00120875120B13AF2C152CEF60241209A301
:1006ED00AB28052AE52AAA297002052914F9EF126B
:1006FD000231E52C6004C2018002D201120AAF80E2
:04070D00D5020B40C6
:1007FA008B2D8A2E892F8D30120B347FA01208750B
:10080A00120B13AF30120875120B13AF311531EFFB
:10081A00601FAB2D052FE52FAA2E7002052E14F9A5
:10082A001201EBFF120875120B137FC812000A801F
:04083A00DA020B4093
:10076300C290758AF4758CFFD28C308DFDA290B344
:100773009290C28DC28CE4F58AF58C309102D28CB2
:10078300309103308DFAC28C308D07C28D7E007F8D
:10079300FF22AF8CEFFEAD8A7C00E42DFDEC3EFC26
:1007A3001201317B967A43798B783C120026120131
:0107B3006ADB
:0107B4002222
:10002600EC4D6011E8497017ED33EC3304600DE4D4
:10003600FCFFFEFD22E933E8330470F80201D61214
:1000460001A158046009E4CC248150062850090215
:1000560001E02840030201DDC0E0EB4A7044B980AC
:1000660006D0E0FB0201CCEF4E701CBD8008EBFF12
:10007600EAFEE9FD80EBE98DF0A4FEE5F002010F52
:10008600E9CDF9EAFEEBFFEF89F0A4FCE5F0CE89B5
:10009600F0A42EFFE435F0CD89F0A42DFEE435F072
:1000A6008067EF4E7005BD80D780C3EF8BF0A4ACA0
:1000B600F0EE8BF0A42CFCE435F0F8EF8AF0A42CDB
:1000C600E5F038FCE433CB8DF0A42CFCE5F03BF8EE
:1000D600EE8AF0A42CFCE5F038F8E433CF89F0A4DE
:1000E6002CFCE5F038CF3400CE89F0A42FFFE5F0E4
:1000F6003EFEE433C98DF0A42EFEE5F039CD8AF03C
:10010600A42FFFE5F03EFEE43DFD33D0E0FB5007B3
:100116000BBB000F0201E0EC2CFCEF33FFEE33FECD
:06012600ED33FD0201B8FB
:10012C0075F020800E75F010800575F0087D007E4E
:10013C00007F003392D530D5031202F0EC3340101F
:10014C00EF33FFEE33FEED33FDEC33FCD5F0ED2257
:0E015C00E5F0247EA2D513CC92E7CDCEFF2293
:10016A00EDD2E7CD33EC3392D524814006E4FFFE8D
:10017A00FDFC22FCE4CFCECDCC24E0501174FF80EC
:10018A00EDC3CC13CCCD13CDCE13CECF13CF047089
:07019A00F030D5DE0202F097
:1001A100E9D2E7C933E833F892D5EDD2E7CD33ECA4
:0701B10033FC5002B2D5221D
:1001B800EC30E7100FBF000C0EBE00080DBD0004A8
:1001C8000BEB6014A2D5EB13FCED92E7FD2274FF54
:1001D800FCFDFEFF22E480F8A2D574FF13FC7D80AD
:0301E800E480EFC1
:03000000020431C6
:0C043100787FE4F6D8FD75813402047871
:1001EB00BB010689828A83E0225002E722BBFE0212
:0901FB00E32289828A83E4932245
:10020400BB010CE58229F582E5833AF583E02250AF
:1002140006E92582F8E622BBFE06E92582F8E222F9
:0D022400E58229F582E5833AF583E4932213
:10023100BB010689828A83F0225002F722BBFE01AC
:02024100F322A6
:10024300F8BB010DE58229F582E5833AF583E8F0F1
:10025300225006E92582C8F622BBFE05E92582C89D
:02026300F22285
:10026500BC000BBE0029EF8DF084FFADF022E4CC7D
:10027500F875F008EF2FFFEE33FEEC33FCEE9DEC46
:10028500984005FCEE9DFE0FD5F0E9E4CEFD22ED8C
:10029500F8F5F0EE8420D21CFEADF075F008EF2FD6
:1002A500FFED33FD4007985006D5F0F222C398FDC7
:0502B5000FD5F0EA2264
:1002BA00C2D5EC30E709B2D5E4C39DFDE49CFCEE5F
:1002CA0030E715B2D5E4C39FFFE49EFE120265C370
:1002DA00E49DFDE49CFC800312026530D507C3E46B
:0602EA009FFFE49EFE22CE
:0E02F000C3E49FFFE49EFEE49DFDE49CFC221F
:1002FE00D083D082F8E4937012740193700DA3A38F
:10030E0093F8740193F5828883E473740293B5F0C5
:0D031E00067403936860E9A3A3A3A380D82D
:10043D00020667E493A3F8E493A34003F68001F268
:10044D0008DFF48029E493A3F85407240CC8C333C0
:10045D00C4540F4420C8834004F456800146F6DF8F
:10046D00E4800B0102040810204080900905E47E11
:10047D00019360BCA3FF543F30E509541FFEE49384
:10048D00A360010ECF54C025E060A840B8E493A34B
:10049D00FAE493A3F8E493A3C8C582C8CAC583CA76
:1004AD00F0A3C8C582C8CAC583CADFE9DEE780BE2E
:01092E0000C8
:00000001FF
