:1002B800E4F510F5111202FFE4F510F511AD11AFD8
:1002C800051201350511E51170020510C39408E502
:0902D800106480948040E680DF90
:10034E007580FFC2A5C2A6D2A7C2A5C2A6C2A72209
:10032C00EFF4F580C2A5C2A6D2A7C2A5C2A6C2A7E9
:01033C00229E
:1002E100EF1FAA0670011E4A6013E4FCFDC3ED94E2
:0D02F10074EC940250EA0DBD00010C80F089
:0102FE0022DD
:08033D0002080000020A0000A2
:0B000600D2AAD28AD2A8D288D2AF22A0
:0300030002020AEC
:10020A00C0E0C0F0C083C082C0D075D000C000C0BA
:0D021A0001C002C003C004C005C006C0073B
:100227000509E50970020508AE08FF7C007D02128A
:0F02370000AAED4C60047FFF8002E4FF12032C4D
:10024600D007D006D005D004D003D002D001D0000C
:0B025600D0D0D082D083D0F0D0E032B6
:0300130002026185
:10026100C0E0C0F0C083C082C0D075D000C000C063
:0D02710001C002C003C004C005C006C007E4
:10027E00050BE50B7002050AAE0AFF7C007D02122B
:0F028E0000AAED4C60047FFF8002E4FF12032CF6
:10029D00D007D006D005D004D003D002D001D000B5
:0B02AD00D0D0D082D083D0F0D0E0325F
:08034500020C0000020E000092
:10031700538EBF53890F758B18758DFCC28FD28E84
:05032700D2ABD2AF22B1
:03001B000201B02F
:1001B000C0E0C0F0C083C082C0D075D000C000C015
:0D01C00001C002C003C004C005C006C00796
:1001CD00050DE50D7002050CAE0CFF7C037DE812EC
:1001DD0000AAED4C700C050FE50F7002050EFF1215
:0201ED00032CE1
:1001EF00D007D006D005D004D003D002D001D00064
:0B01FF00D0D0D082D083D0F0D0E0320E
:1002FF00E4F580E5A054DF44C0F5A053A01F75803E
:08030F00C043A0EF53A01F2220
:10013500EDB40A00504B900142F828287302016083
:1001450002016402016802016C020170020174027D
:10015500017802017C0201800201847EC080227E3A
:10016500F9801E7EA4801A7EB080167E9980127E4C
:1001750092800E7E82800A7EF880067E8080027ED6
:10018500907580FF43A0E053A01FA8077401088065
:1001950002C333D8FCF580E5A054DF44C0F5A05375
:0A01A500A01F8E8043A0E053A01FAE
:0101AF00222D
:0300000002001EDD
:0C001E00787FE4F6D8FD758111020065C2
:1000AA00C2D5EC30E709B2D5E4C39DFDE49CFCEE71
:1000BA0030E715B2D5E4C39FFFE49EFE1200E0C309
:1000CA00E49DFDE49CFC80031200E030D507C3E404
:0600DA009FFFE49EFE22E0
:10002A000202B8E493A3F8E493A34003F68001F232
:10003A0008DFF48029E493A3F85407240CC8C333D7
:10004A00C4540F4420C8834004F456800146F6DFA6
:10005A00E4800B010204081020408090033DE47EF6
:10006A00019360BCA3FF543F30E509541FFEE4939B
:10007A00A360010ECF54C025E060A840B8E493A362
:10008A00FAE493A3F8E493A3C8C582C8CAC583CA8D
:10009A00F0A3C8C582C8CAC583CADFE9DEE780BE45
:01034D0000AF
:1000E000BC000BBE0029EF8DF084FFADF022E4CC04
:1000F000F875F008EF2FFFEE33FEEC33FCEE9DECCD
:10010000984005FCEE9DFE0FD5F0E9E4CEFD22ED12
:10011000F8F5F0EE8420D21CFEADF075F008EF2F5C
:10012000FFED33FD4007985006D5F0F222C398FD4D
:050130000FD5F0EA22EA
:00000001FF
