:1006BF00120CC2120C66E51C6401700B120A948FA7
:1006CF0012120BD2E4F51CAC12E41202CE7BCD7ADF
:1006DF00CC799C784012011EE4FBFA797F784312A3
:1006EF000227A804A905AA06AB07E4FFFE7DA07C9C
:1006FF00401200298F168E158D148C13120302AD24
:10070F00077B01E4FF1207ECE4FFFE7D207C41AB89
:10071F0016AA15A914A81312011E120302EF75F0E1
:10072F000A84ADF0E4FB7F011207ECE4FFFE7DC805
:10073F007C42AB16AA15A914A81312011E120302AC
:10074F00EF75F00A84ADF0E4FB7F021207EC0206AE
:01075F00C5D4
:100CF9007580FFC2A5C2A6D2A7C2A5C2A6C2A72255
:100CD700EFF4F580C2A5C2A6D2A7C2A5C2A6C2A735
:010CE70022EA
:100BF200EF1FAA0670011E4A6013E4FCFDC3ED94C8
:0D0C020074EC940250EA0DBD00010C80F06E
:010C0F0022C2
:080B3D00022D0000022F000050
:0B0D2100D2AAD28AD2A8D288D2AF2278
:030003000208E30D
:1008E300C0E0C0F0C083C082C0D075D000C000C0DB
:0D08F30001C002C003C004C005C006C0075C
:10090000052EE52E7002052DAE2DFF7C007D021216
:0F09100004F3ED4C60047FFF8002E4FF120CD76C
:10091F00D007D006D005D004D003D002D001D0002C
:0B092F00D0D0D082D083D0F0D0E032D6
:0300130002093AA5
:10093A00C0E0C0F0C083C082C0D075D000C000C083
:0D094A0001C002C003C004C005C006C00704
:100957000530E5307002052FAE2FFF7C007D0212B7
:0F09670004F3ED4C60047FFF8002E4FF120CD715
:10097600D007D006D005D004D003D002D001D000D5
:0B098600D0D0D082D083D0F0D0E0327F
:0A0D2C0048656C6C6F0A00000000BF
:0B0B4500011C0002180000021A000052
:100CC200538EBF53890F758B18758DFCC28FD28ED0
:050CD200D2ABD2AF22FD
:03001B0002087761
:10087700C0E0C0F0C083C082C0D075D000C000C047
:0D08870001C002C003C004C005C006C007C8
:1008940078087C007D007BFF7A0D792C7E007F0A2E
:1008A4001204530519E51970020518AE18FF7C01EE
:1008B4007DF41204F3ED4C700B051BE51B7002056F
:0408C4001A751C0184
:1008C800D007D006D005D004D003D002D001D00084
:0B08D800D0D0D082D083D0F0D0E0322E
:100C6600E4F580E5A054DF44C0F5A053A01F7580CD
:080C7600C043A0EF53A01F22B0
:0207EC00A9075B
:1007EE00EDB40A00504D9007FBF828287302081943
:1007FE0002081D02082102082502082902082D02FE
:10080E00083102083502083902083D7EC080267E76
:10081E00F980227EA4801E7EB0801A7E9980167E7C
:10082E009280127E82800E7EF8800A7E8080067E06
:10083E009080027EC0EB6401700353067F7580FFCB
:10084E0043A0E053A01FAF01A8077401088002C3A4
:10085E0033D8FCF580E5A054DF44C0F5A053A01FAB
:08086E008E8043A0E053A01F9F
:01087600225F
:1005B900C2C4D2C2D2B5D2B4AFB07E00D2C4C2C214
:1005C900D2B5D2B4EFC4F8540FC868FFEEC454F0E2
:1005D90048FEE5B0540FFDEF4DD2C4D2C2C2B5D228
:1005E900B4C4F8540FC868FFEEC454F048FEE5B02F
:1005F900540FFDEF4DD2C4D2C2D2B5C2B4C4F8541F
:100609000FC868FFEEC454F048FEE5B0540FFDEF83
:100619004DF4FFEEF4FEEF8EF012053706B400013B
:1006290006AF000206AA000406A5000806A00010ED
:10063900069B00200696004006910080068C01006A
:100649000687020006820400067D0800067810006D
:1006590006732000066E400006698000000006B996
:10066900751D04804E751D058049751D06804475EC
:100679001D07803F751D08803A751D098035751D58
:100689000A8030751D0B802B751D0C8026751D0D7C
:100699008021751D0E801C751D0F8017751D10801A
:1006A90012751D11800D751D128008751D138003AB
:0506B900E4F51DAF1D7A
:0106BE002219
:100B50000A23000000000000000000000121000145
:020B6000220071
:100C7E00759850438E01438E0475D78F75D6FD43FC
:070C8E008E10D2ACD2AF22A0
:100CAC001204796010F5993099FDC299740129F9F3
:060CBC00E43AFA80EB228D
:03002300020B636A
:100B6300C0E0C0D075D000C000C00730980FAF21DF
:100B7300052174232FF8A699C298752201D007D0B6
:060B830000D0D0D0E032EA
:100C2E00E4FEEEC3940874809480500FC297EF13C5
:0B0C3E0092A3EFC313FFD2970E80E7D4
:010C49002288
:080C4A0075F00A84E5F02EFDAF
:100C5200C29300C29700D29300120C2EAF05120C61
:040C62002EC29322E9
:100A2800E4FDC29300C29700D29300120C2EE4FF9B
:100A3800EFC39408748094805011C297EDC313FDDE
:100A480030A303430580D2970F80E5C29300C29775
:060A580000C2A300AF057F
:010A5E002275
:10099100E4FD7F8E120C52120479FF75F00A84C4B3
:1009A10054F0FEEF7F84120C4A900001120492FF72
:1009B10075F00A84C454F0FEEF7F82120C4A900055
:1009C10002120492FF75F00A84C454F0FEEF75F030
:1009D1000A84E5F02EFD7F80120C527D807F8E020D
:0209E1000C52B6
:1009E3007F85120A28EFC4540F75F00AA4FEEF5452
:1009F3000F2E1204BF7F83120A28EFC4540F75F021
:100A03000AA4FEEF540F2E9000011204D17F81122D
:100A13000A28EFC4540F75F00AA4FEEF540F2E906A
:050A230000020204D1F5
:040C10007F057E00DE
:100C1400EF1FAA0670011E4A600FE4FDEDC3940C99
:090C24007480948050EA0D80F305
:010C2D0022A4
:020AEF00A90755
:100AF100E4FBEBC39408748094805012C294E91310
:100B01009294120C10D294E9C313F90B80E47F057F
:050B11007E00020C143F
:100BAF00E4FBEBC39408748094805014C294ECC39C
:100BBF0013FCD294309403430480120C100B80E288
:020BCF00AF0471
:010BD1002201
:100B1600C200D2947F0C7E00120C14C2947F507EC9
:100B260000120C14D2947F0A7E00120C14A2949226
:060B360000120C10A200E9
:010B3C002296
:100AC200120B167FCC120AEF7F44120AEF120B169A
:100AD2007FCC120AEF7FBE120AEF120BAFA90712E8
:0C0AE2000BAFEFFE7C00E429FFEC3EFEB1
:010AEE0022E5
:04000600D2A07F0500
:08000A0000AE071FEE70F922A1
:0C0D0900D2A1120006C2A17F0502000A60
:0C0D1500C2A1120006D2A17F0502000A54
:100C9500C2A0A20192A17F0512000A120006C2A0FD
:070CA500D2A17F0502000A45
:100CE800120006A2A19201C2A07F0512000AA20169
:010CF80022D9
:020A5F00AD07E1
:100A6100E4FCECC39408748094805024C2A07F05F8
:100A710012000AED30E704D2A18002C2A17F051263
:100A8100000AD2A0ED25E0FD7F0512000A0C80D2FC
:020A9100C2A001
:010A93002240
:100B8900E4FCECC39408748094805017120006EDBD
:100B990025E0FD30A103430501C2A07F0512000A2B
:050BA9000C80DFAF0528
:010BAE002224
:100A9400120D097F90120A5F120CE87F43120A5F5D
:100AA400120CE8120D097F91120A5F120CE8120B66
:0D0AB400898F17D201120C95120D15AF1786
:010AC1002212
:100BD2008F17120D097F90120A5F120CE87F4312E1
:100BE2000A5F120CE8AF17120A5F120CE8020D1529
:1000260002036EE86480F8E933E83360110460F097
:10003600ED33EC337009E8FCE9FDEAFEEBFF220440
:1000460060DED3EB9FEA9EE99DE8C2E78CF0C2F73B
:1000560095F0400CE8CCF8E9CDF9EACEFAEBCFFB07
:1000660012033985D0F05804700320D5B3E8047024
:10007600075002B2D502037892D5EC0460F7E4CCBF
:10008600C0E0C398F8603B94186008400DD0E0FBD0
:10009600020350E4FBFAC9FC8028E830E406E4C910
:1000A600FBE4CAFCE830E305E4C9CACBFCE8540724
:1000B6006010F8C3E913F9EA13FAEB13FBEC13FC2F
:1000C600D8F130F52FC3E49CFCEF9BFFEE9AFEEDD2
:1000D60099FDD0E0FBEF4E4D4C701222DB0302037C
:1000E60075EC2CFCEF33FFEE33FEED33FDED30E720
:1000F600EB020350EF2BFFEE3AFEED39FDD0E0FBAD
:1001060050130BBB0003020378ED13FDEE13FEEF55
:0801160013FFEC13FC0203507F
:10011E00EC4D6011E8497017ED33EC3304600DE4DB
:10012E00FCFFFEFD22E933E8330470F802036E1281
:10013E00033958046009E4CC248150062850090282
:10014E000378284003020375C0E0EB4A7044B9807F
:10015E0006D0E0FB020364EF4E701CBD8008EBFF7F
:10016E00EAFEE9FD80EBE98DF0A4FEE5F002020760
:10017E00E9CDF9EAFEEBFFEF89F0A4FCE5F0CE89BC
:10018E00F0A42EFFE435F0CD89F0A42DFEE435F079
:10019E008067EF4E7005BD80D780C3EF8BF0A4ACA7
:1001AE00F0EE8BF0A42CFCE435F0F8EF8AF0A42CE2
:1001BE00E5F038FCE433CB8DF0A42CFCE5F03BF8F5
:1001CE00EE8AF0A42CFCE5F038F8E433CF89F0A4E5
:1001DE002CFCE5F038CF3400CE89F0A42FFFE5F0EB
:1001EE003EFEE433C98DF0A42EFEE5F039CD8AF043
:1001FE00A42FFFE5F03EFEE43DFD33D0E0FB5007BB
:10020E000BBB000F020378EC2CFCEF33FFEE33FE3A
:06021E00ED33FD02035068
:10022400020378EC5D046005E85904700302036E70
:10023400120339580460F6EC4860F2EC7004FDFED9
:10024400FF22C860DB2481C85009C39860025006AD
:100254000203759850CAF582E9294B4A7005AB82AE
:1002640002036475F0007C1A7880C3EF9BEE9AED6C
:1002740099400DC3EF9BFFEE9AFEED99FDE842F025
:10028400DC23ACF0D0E0FFD0E0FED0E0FDAB822078
:10029400E7101BEB60BAEC2CFCEF33FFEE33FEED02
:1002A40033FD020350E803F830E705C0F075F000B1
:1002B400EF2FFFEE33FEED33FD40B830E7C280AAE6
:1002C40075F020800E75F010800575F0087D007EB5
:1002D400007F003392D530D503120529EC3340104A
:1002E400EF33FFEE33FEED33FDEC33FCD5F0ED22BE
:0E02F400E5F0247EA2D513CC92E7CDCEFF22FA
:10030200EDD2E7CD33EC3392D524814006E4FFFEF3
:10031200FDFC22FCE4CFCECDCC24E0501174FF8052
:10032200EDC3CC13CCCD13CDCE13CECF13CF0470EF
:07033200F030D5DE020529C1
:10033900E9D2E7C933E833F892D5EDD2E7CD33EC0A
:0703490033FC5002B2D52283
:10035000EC30E7100FBF000C0EBE00080DBD00040E
:100360000BEB6014A2D5EB13FCED92E7FD2274FFBA
:10037000FCFDFEFF22E480F8A2D574FF13FC7D8013
:03038000E480EF27
:0300000002076094
:0C076000787FE4F6D8FD7581300207A711
:10038300E709F608DFFA8046E709F208DFFA803E5C
:1003930088828C83E709F0A3DFFA8032E309F60849
:1003A300DFFA8078E309F208DFFA807088828C83B1
:1003B300E309F0A3DFFA806489828A83E0A3F60865
:1003C300DFFA805889828A83E0A3F208DFFA804C3F
:1003D30080D280FA80C680D4806980F28033801016
:1003E30080A680EA809A80A880DA80E280CA80337F
:1003F30089828A83ECFAE493A3C8C582C8CCC583F7
:10040300CCF0A3C8C582C8CCC583CCDFE9DEE780C6
:100413000D89828A83E493A3F608DFF9ECFAA9F045
:10042300EDFB2289828A83ECFAE0A3C8C582C8CC9B
:10043300C583CCF0A3C8C582C8CCC583CCDFEADEB4
:10044300E880DB89828A83E493A3F208DFF980CC16
:1004530088F0EF60010E4E60C388F0ED2402B4040F
:100463000050B9F582EB2402B4040050AF232345B6
:0604730082239003D37305
:10047900BB010689828A83E0225002E722BBFE0281
:09048900E32289828A83E49322B4
:10049200BB010CE58229F582E5833AF583E022501F
:1004A20006E92582F8E622BBFE06E92582F8E22269
:0D04B200E58229F582E5833AF583E4932283
:1004BF00BB010689828A83F0225002F722BBFE011C
:0204CF00F32216
:1004D100F8BB010DE58229F582E5833AF583E8F061
:1004E100225006E92582C8F622BBFE05E92582C80D
:0204F100F222F5
:1004F300C2D5EC30E709B2D5E4C39DFDE49CFCEE24
:1005030030E715B2D5E4C39FFFE49EFE120564C332
:10051300E49DFDE49CFC800312056430D507C3E42D
:060523009FFFE49EFE2292
:0E052900C3E49FFFE49EFEE49DFDE49CFC22E3
:10053700D083D082F8E4937012740193700DA3A353
:1005470093F8740193F5828883E473740293B5F08A
:0D055700067403936860E9A3A3A3A380D8F2
:10076C000206BFE493A3F8E493A34003F68001F2DE
:10077C0008DFF48029E493A3F85407240CC8C3338E
:10078C00C4540F4420C8834004F456800146F6DF5D
:10079C00E4800B0102040810204080900B3DE47EA5
:1007AC00019360BCA3FF543F30E509541FFEE49352
:1007BC00A360010ECF54C025E060A840B8E493A319
:1007CC00FAE493A3F8E493A3C8C582C8CAC583CA44
:1007DC00F0A3C8C582C8CAC583CADFE9DEE780BEFC
:010B62000092
:10056400BC000BBE0029EF8DF084FFADF022E4CC7B
:10057400F875F008EF2FFFEE33FEEC33FCEE9DEC44
:10058400984005FCEE9DFE0FD5F0E9E4CEFD22ED8A
:10059400F8F5F0EE8420D21CFEADF075F008EF2FD4
:1005A400FFED33FD4007985006D5F0F222C398FDC5
:0505B4000FD5F0EA2262
:00000001FF
