:0802700002080000020A000070
:0802A20012029212025B80FEC1
:03001B00020135AA
:10013500C0E0C0F0C083C082C0D075D000C000C090
:0D01450001C002C003C004C005C006C00711
:100152000509E50970020508AE08FF7C037DE81277
:1001620000AAED4C700C050BE50B7002050AFF129C
:02017200028108
:10017400D007D006D005D004D003D002D001D000DF
:0B018400D0D0D082D083D0F0D0E03289
:100292007580FFC2A5C2A6D2A7C2A5C2A6C2A722C6
:10028100EFF4F580C2A5C2A6D2A7C2A5C2A6C2A795
:01029100224A
:10023D00EF1FAA0670011E4A6013E4FCFDC3ED9486
:0D024D0074EC940250EA0DBD00010C80F02D
:01025A002281
:08027800020C0000020E000060
:0B000600D2AAD28AD2A8D288D2AF22A0
:0300030002018F68
:10018F00C0E0C0F0C083C082C0D075D000C000C036
:0D019F0001C002C003C004C005C006C007B7
:1001AC00050DE50D7002050CAE0CFF7C007D0212F6
:0F01BC0000AAED4C60047FFF8002E4FF12028175
:1001CB00D007D006D005D004D003D002D001D00088
:0B01DB00D0D0D082D083D0F0D0E03232
:030013000201E601
:1001E600C0E0C0F0C083C082C0D075D000C000C0DF
:0D01F60001C002C003C004C005C006C00760
:10020300050FE50F7002050EAE0EFF7C007D021296
:0F02130000AAED4C60047FFF8002E4FF1202811D
:10022200D007D006D005D004D003D002D001D00030
:0B023200D0D0D082D083D0F0D0E032DA
:10025B00538EBF53890F758B18758DFCC28FD28E41
:05026B00D2ABD2AF226E
:0300000002001EDD
:0C001E00787FE4F6D8FD75810F020065C4
:1000AA00C2D5EC30E709B2D5E4C39DFDE49CFCEE71
:1000BA0030E715B2D5E4C39FFFE49EFE1200E0C309
:1000CA00E49DFDE49CFC80031200E030D507C3E404
:0600DA009FFFE49EFE22E0
:10002A000202A2E493A3F8E493A34003F68001F248
:10003A0008DFF48029E493A3F85407240CC8C333D7
:10004A00C4540F4420C8834004F456800146F6DFA6
:10005A00E4800B0102040810204080900270E47EC4
:10006A00019360BCA3FF543F30E509541FFEE4939B
:10007A00A360010ECF54C025E060A840B8E493A362
:10008A00FAE493A3F8E493A3C8C582C8CAC583CA8D
:10009A00F0A3C8C582C8CAC583CADFE9DEE780BE45
:01028000007D
:1000E000BC000BBE0029EF8DF084FFADF022E4CC04
:1000F000F875F008EF2FFFEE33FEEC33FCEE9DECCD
:10010000984005FCEE9DFE0FD5F0E9E4CEFD22ED12
:10011000F8F5F0EE8420D21CFEADF075F008EF2F5C
:10012000FFED33FD4007985006D5F0F222C398FD4D
:050130000FD5F0EA22EA
:00000001FF
