:0E046000080A0A0A0A0A0A0A0A0A0208000022
:1003ED0012049D12047712044812001EEF60277F3D
:1003FD00147E0012042A12001E8F16EF601175F084
:10040D000A84F510E51675F00A8485F01180DAE49A
:0D041D00F510F51180D3E4F510F51180CC39
:03001B0002039845
:10039800C0E0C0F0C083C082C0D075D000C000C02B
:0D03A80001C002C003C004C005C006C007AC
:1003B5000509E50970020508640845087004F50893
:0D03C500F509AF09740A2FF8E6FD12026871
:1003D200D007D006D005D004D003D002D001D0007F
:0B03E200D0D0D082D083D0F0D0E03229
:10049D007580FFC2A5C2A6D2A7C2A5C2A6C2A722B9
:10048C00EFF4F580C2A5C2A6D2A7C2A5C2A6C2A788
:01049C00223D
:10042A00EF1FAA0670011E4A6013E4FCFDC3ED9497
:0D043A0074EC940250EA0DBD00010C80F03E
:010447002292
:08046E0002120000021400005C
:0B000600D2AAD28AD2A8D288D2AF22A0
:030003000202EA0C
:1002EA00C0E0C0F0C083C082C0D075D000C000C0DA
:0D02FA0001C002C003C004C005C006C0075B
:100307000513E51370020512AE12FF7C007D021281
:0F0317000124ED4C60047FFF8002E4FF12048C90
:10032600D007D006D005D004D003D002D001D0002B
:0B033600D0D0D082D083D0F0D0E032D5
:03001300020341A4
:10034100C0E0C0F0C083C082C0D075D000C000C082
:0D03510001C002C003C004C005C006C00703
:10035E000515E51570020514AE14FF7C007D021222
:0F036E000124ED4C60047FFF8002E4FF12048C39
:10037D00D007D006D005D004D003D002D001D000D4
:0B038D00D0D0D082D083D0F0D0E0327E
:10047700538EBF53890F758B18758DFCC28FD28E23
:05048700D2ABD2AF2250
:10044800E4F580E5A054DF44C0F5A053A01F7580F3
:08045800C043A0EF53A01F22D6
:10026800EDB40B005052900275F8282873020296DC
:1002780002029A02029E0202A20202A60202AA0236
:1002880002AE0202B20202B60202BA0202BE7EC088
:1002980080267EF980227EA4801E7EB0801A7E99F8
:1002A80080167E9280127E82800E7EF8800A7E8082
:1002B80080067E9080027EFF7580FF43A0E053A0F9
:1002C8001FA8077401088002C333D8FCF580E5A095
:1002D80054DF44C0F5A053A01F8E8043A0E053A074
:0102E8001FF6
:0102E90022F2
:10001E00C2C4D2C2D2B5D2B4AFB07E00D2C4C2C2B4
:10002E00D2B5D2B4EFC4F8540FC868FFEEC454F082
:10003E0048FEE5B0540FFDEF4DD2C4D2C2C2B5D2C8
:10004E00B4C4F8540FC868FFEEC454F048FEE5B0CF
:10005E00540FFDEF4DD2C4D2C2D2B5C2B4C4F854BF
:10006E000FC868FFEEC454F048FEE5B0540FFDEF24
:10007E004DF4FFEEF4FEEF8EF012015A011900015D
:10008E0001140002010F0004010A0008010500100E
:10009E000100002000FB004000F6008000F101008E
:1000AE0000EC020000E7040000E2080000DD100092
:1000BE0000D8200000D3400000CE80000000011EBA
:1000CE00751704804E75170580497517068044759F
:1000DE001707803F751708803A7517098035751711
:1000EE000A803075170B802B75170C802675170D2F
:1000FE00802175170E801C75170F801775171080CD
:10010E0012751711800D751712800875171380035D
:05011E00E4F517AF1726
:0101230022B9
:030000000201DC1E
:0C01DC00787FE4F6D8FD7581170202233D
:10012400C2D5EC30E709B2D5E4C39DFDE49CFCEEF6
:1001340030E715B2D5E4C39FFFE49EFE120187C3E6
:10014400E49DFDE49CFC800312018730D507C3E4E1
:060154009FFFE49EFE2265
:10015A00D083D082F8E4937012740193700DA3A334
:10016A0093F8740193F5828883E473740293B5F06B
:0D017A00067403936860E9A3A3A3A380D8D3
:1001E8000203EDE493A3F8E493A34003F68001F23D
:1001F80008DFF48029E493A3F85407240CC8C33318
:10020800C4540F4420C8834004F456800146F6DFE6
:10021800E4800B0102040810204080900460E47E12
:10022800019360BCA3FF543F30E509541FFEE493DB
:10023800A360010ECF54C025E060A840B8E493A3A2
:10024800FAE493A3F8E493A3C8C582C8CAC583CACD
:10025800F0A3C8C582C8CAC583CADFE9DEE780BE85
:010476000085
:10018700BC000BBE0029EF8DF084FFADF022E4CC5C
:10019700F875F008EF2FFFEE33FEEC33FCEE9DEC25
:1001A700984005FCEE9DFE0FD5F0E9E4CEFD22ED6B
:1001B700F8F5F0EE8420D21CFEADF075F008EF2FB5
:1001C700FFED33FD4007985006D5F0F222C398FDA6
:0501D7000FD5F0EA2243
:00000001FF
