:0506A5000321173B32A8
:1004CD0012078E1207497B007A0079211205D7E5B4
:1004DD001E75F00A84FDE4FF1203E0E51E75F00AB7
:1004ED0084ADF07F011203E0E51F75F00A84FD7FF6
:1004FD00021203E0E51F75F00A84ADF07F031203CD
:10050D00E0E52075F00A84FD7F041203E0E5207517
:0C051D00F00A84ADF07F051203E080B30B
:1007B4007580FFC2A5C2A6D2A7C2A5C2A6C2A7229F
:1007A300EFF4F580C2A5C2A6D2A7C2A5C2A6C2A76E
:0107B3002223
:1006F300EF1FAA0670011E4A6013E4FCFDC3ED94CC
:0D07030074EC940250EA0DBD00010C80F072
:0107100022C6
:0806AA000224000002260000FA
:0B000600D2AAD28AD2A8D288D2AF22A0
:03000300020529CA
:10052900C0E0C0F0C083C082C0D075D000C000C098
:0D05390001C002C003C004C005C006C00719
:100546000525E52570020524AE24FF7C007D0212F8
:0F0556000196ED4C60047FFF8002E4FF1207A3C3
:10056500D007D006D005D004D003D002D001D000EA
:0B057500D0D0D082D083D0F0D0E03294
:0300130002058063
:10058000C0E0C0F0C083C082C0D075D000C000C041
:0D05900001C002C003C004C005C006C007C2
:10059D000527E52770020526AE26FF7C007D021299
:0F05AD000196ED4C60047FFF8002E4FF1207A36C
:1005BC00D007D006D005D004D003D002D001D00093
:0B05CC00D0D0D082D083D0F0D0E0323D
:0A07C40048656C6C6F0A000000002D
:0806B20002280000022A0000EA
:10078E00538EBF53890F758B18758DFCC28FD28E09
:05079E00D2ABD2AF2236
:03001B0002045B81
:10045B00C0E0C0F0C083C082C0D075D000C000C067
:0D046B0001C002C003C004C005C006C007E8
:1004780078147C007D007BFF7A0779C47E007F0AB0
:100488001200F60529E52970020528AE28FF7C0B25
:100498007DB8120196ED4C7011052BE52B70020505
:0A04A8002A7B007A00791E12062953
:1004B200D007D006D005D004D003D002D001D0009E
:0B04C200D0D0D082D083D0F0D0E03248
:10074900E4F580E5A054DF44C0F5A053A01F7580EF
:08075900C043A0EF53A01F22D2
:1003E000EDB40A00504B9003EDF828287302040B7B
:1003F00002040F02041302041702041B02041F026A
:10040000042302042702042B02042F7EC080227ED4
:10041000F9801E7EA4801A7EB080167E9980127E9E
:1004200092800E7E82800A7EF880067E8080027E28
:10043000907580FF43A0E053A01FA80774010880B7
:1004400002C333D8FCF580E5A054DF44C0F5A053C7
:0A045000A01F8E8043A0E053A01F00
:01045A00227F
:10024E00C2C4D2C2D2B5D2B4AFB07E00D2C4C2C282
:10025E00D2B5D2B4EFC4F8540FC868FFEEC454F050
:10026E0048FEE5B0540FFDEF4DD2C4D2C2C2B5D296
:10027E00B4C4F8540FC868FFEEC454F048FEE5B09D
:10028E00540FFDEF4DD2C4D2C2D2B5C2B4C4F8548D
:10029E000FC868FFEEC454F048FEE5B0540FFDEFF2
:1002AE004DF4FFEEF4FEEF8EF01201CC0349000187
:1002BE0003440002033F0004033A00080335001014
:1002CE0003300020032B0040032600800321010091
:1002DE00031C02000317040003120800030D100094
:1002EE00030820000303400002FE80000000034EBE
:1002FE00752C04804E752C058049752C068044752E
:10030E002C07803F752C08803A752C098035752C8A
:10031E000A8030752C0B802B752C0C8026752C0DBD
:10032E008021752C0E801C752C0F8017752C10805B
:10033E0012752C11800D752C128008752C138003EC
:05034E00E4F52CAF2CCA
:010353002287
:1006BA000A0A000000000000000000000108000112
:0206CA00090025
:10076100759850438E01438E0475D78F75D6FD431E
:070771008E10D2ACD2AF22C2
:1007780012011C6010F5993099FDC299740129F98C
:06078800E43AFA80EB22C6
:030023000206CD05
:1006CD00C0E0C0D075D000C000C00730980FAF0893
:1006DD000508740A2FF8A699C298750901D007D09C
:0606ED0000D0D0D0E03285
:10071100E4FEEEC3940874809480500FC297EF13E7
:0B07210092A3EFC313FFD2970E80E7F6
:01072C0022AA
:08072D0075F00A84E5F02EFDD1
:10073500C29300C29700D29300120711AF051207AA
:0407450011C2932228
:10066E00E4FDC29300C29700D29300120711E4FF7B
:10067E00EFC39408748094805011C297EDC313FD9C
:10068E0030A303430580D2970F80E5C29300C29733
:06069E0000C2A300AF053D
:0106A4002233
:1005D700E4FD7F8E12073512011CFF75F00A84C4F3
:1005E70054F0FEEF7F8412072D900001120135FFB2
:1005F70075F00A84C454F0FEEF7F8212072D900035
:1006070002120135FF75F00A84C454F0FEEF75F04D
:100617000A84E5F02EFD7F801207357D807F8E02EC
:02062700073595
:100629007F8512066EEFC4540F75F00AA4FEEF54CD
:100639000F2E1201627F8312066EEFC4540F75F0FC
:100649000AA4FEEF540F2E9000011201747F81124B
:10065900066EEFC4540F75F00AA4FEEF540F2E90E6
:05066900000202017413
:03000000020354A4
:0C035400787FE4F6D8FD75812C02039B35
:10002600E709F608DFFA8046E709F208DFFA803EBC
:1000360088828C83E709F0A3DFFA8032E309F608A9
:10004600DFFA8078E309F208DFFA807088828C8311
:10005600E309F0A3DFFA806489828A83E0A3F608C5
:10006600DFFA805889828A83E0A3F208DFFA804C9F
:1000760080D280FA80C680D4806980F28033801076
:1000860080A680EA809A80A880DA80E280CA8033DF
:1000960089828A83ECFAE493A3C8C582C8CCC58357
:1000A600CCF0A3C8C582C8CCC583CCDFE9DEE78027
:1000B6000D89828A83E493A3F608DFF9ECFAA9F0A6
:1000C600EDFB2289828A83ECFAE0A3C8C582C8CCFC
:1000D600C583CCF0A3C8C582C8CCC583CCDFEADE15
:1000E600E880DB89828A83E493A3F208DFF980CC77
:1000F60088F0EF60010E4E60C388F0ED2402B40470
:100106000050B9F582EB2402B4040050AF23234516
:06011600822390007673C5
:10011C00BB010689828A83E0225002E722BBFE02E1
:09012C00E32289828A83E4932214
:10013500BB010CE58229F582E5833AF583E022507F
:1001450006E92582F8E622BBFE06E92582F8E222C9
:0D015500E58229F582E5833AF583E49322E3
:10016200BB010689828A83F0225002F722BBFE017C
:02017200F32276
:10017400F8BB010DE58229F582E5833AF583E8F0C1
:10018400225006E92582C8F622BBFE05E92582C86D
:02019400F22255
:10019600C2D5EC30E709B2D5E4C39DFDE49CFCEE84
:1001A60030E715B2D5E4C39FFFE49EFE1201F9C302
:1001B600E49DFDE49CFC80031201F930D507C3E4FD
:0601C6009FFFE49EFE22F3
:1001CC00D083D082F8E4937012740193700DA3A3C2
:1001DC0093F8740193F5828883E473740293B5F0F9
:0D01EC00067403936860E9A3A3A3A380D861
:100360000204CDE493A3F8E493A34003F68001F2E2
:1003700008DFF48029E493A3F85407240CC8C3339E
:10038000C4540F4420C8834004F456800146F6DF6D
:10039000E4800B01020408102040809006A5E47E52
:1003A000019360BCA3FF543F30E509541FFEE49362
:1003B000A360010ECF54C025E060A840B8E493A329
:1003C000FAE493A3F8E493A3C8C582C8CAC583CA54
:1003D000F0A3C8C582C8CAC583CADFE9DEE780BE0C
:0106CC00002D
:1001F900BC000BBE0029EF8DF084FFADF022E4CCEA
:10020900F875F008EF2FFFEE33FEEC33FCEE9DECB2
:10021900984005FCEE9DFE0FD5F0E9E4CEFD22EDF8
:10022900F8F5F0EE8420D21CFEADF075F008EF2F42
:10023900FFED33FD4007985006D5F0F222C398FD33
:050249000FD5F0EA22D0
:00000001FF
