:0802230012020A12000680FE1F
:10020A007580FFC2A5C2A6D2A7C2A5C2A6C2A7224E
:1001F900EFF4F580C2A5C2A6D2A7C2A5C2A6C2A71E
:0102090022D2
:1001DB00EF1FAA0670011E4A6013E4FCFDC3ED94E9
:0D01EB0074EC940250EA0DBD00010C80F090
:0101F80022E4
:08021A0002080000020A0000C6
:0B000600D2AAD28AD2A8D288D2AF22A0
:0300030002012DCA
:10012D00C0E0C0F0C083C082C0D075D000C000C098
:0D013D0001C002C003C004C005C006C00719
:10014A000509E50970020508AE08FF7C007D021268
:0F015A0000A2ED4C60047FFF8002E4FF1201F968
:10016900D007D006D005D004D003D002D001D000EA
:0B017900D0D0D082D083D0F0D0E03294
:0300130002018463
:10018400C0E0C0F0C083C082C0D075D000C000C041
:0D01940001C002C003C004C005C006C007C2
:1001A100050BE50B7002050AAE0AFF7C007D021209
:0F01B10000A2ED4C60047FFF8002E4FF1201F911
:1001C000D007D006D005D004D003D002D001D00093
:0B01D000D0D0D082D083D0F0D0E0323D
:03000000020016E5
:0C001600787FE4F6D8FD75810B02005DD8
:1000A200C2D5EC30E709B2D5E4C39DFDE49CFCEE79
:1000B20030E715B2D5E4C39FFFE49EFE1200D8C319
:1000C200E49DFDE49CFC80031200D830D507C3E414
:0600D2009FFFE49EFE22E8
:10002200020223E493A3F8E493A34003F68001F2CF
:1000320008DFF48029E493A3F85407240CC8C333DF
:10004200C4540F4420C8834004F456800146F6DFAE
:10005200E4800B010204081020408090021AE47E22
:10006200019360BCA3FF543F30E509541FFEE493A3
:10007200A360010ECF54C025E060A840B8E493A36A
:10008200FAE493A3F8E493A3C8C582C8CAC583CA95
:10009200F0A3C8C582C8CAC583CADFE9DEE780BE4D
:0102220000DB
:1000D800BC000BBE0029EF8DF084FFADF022E4CC0C
:1000E800F875F008EF2FFFEE33FEEC33FCEE9DECD5
:1000F800984005FCEE9DFE0FD5F0E9E4CEFD22ED1B
:10010800F8F5F0EE8420D21CFEADF075F008EF2F64
:10011800FFED33FD4007985006D5F0F222C398FD55
:050128000FD5F0EA22F2
:00000001FF
